:100000000C94A7000C94C4000C94C4000C94C4007D
:100010000C94C4000C94C4000C94C4000C94C40050
:100020000C94C4000C94C4000C94C4000C94C40040
:100030000C94C4000C94C4000C94C4000C94C40030
:100040000C94B3080C94C4000C94C4000C94C40029
:100050000C94C40000407A10F35A00A0724E1809A4
:100060000010A5D4E80000E87648170000E40B541F
:10007000020000CA9A3B000000E1F50500008096EE
:100080009800000040420F000000A0860100000020
:10009000102700000000E8030000000064000000DA
:1000A00000000A00000000000100000000002C76A3
:1000B000D888DC674F0823DFC1DFAE59E1B1B796BE
:1000C000E5E3E453C63AE651997696E8E6C284261B
:1000D000EB898C9B62ED407C6FFCEFBC9C9F40F2F7
:1000E000BAA56FA5F490055A2AF75C936B6CF96773
:1000F0006DC11BFCE0E40D47FEF520E6B500D0ED38
:10010000902E0300943577050080841E080000209F
:100110004E0A000000C80C333333330F986E12833D
:100120001141EF8D2114893BE65516CFFEE6DB1811
:10013000D1844B381BF77C1D901DA4BBE4242032D6
:1001400084725E228100C9F124ECA1E53D271124CF
:100150001FBECFE5D8E0DEBFCDBF11E0A0E6B0E026
:10016000E6E4F6E302C005900D92A439B107D9F791
:1001700011E0A4E9B1E001C01D92A839B107E1F78F
:100180000E949C110C94211B0C940000EF92FF9292
:100190000F931F937B018C0120E030E040E05FE48F
:1001A0000E94720488238CF0C801B70120E030E07F
:1001B00040E05FE40E943E020E9430059B01AC01DA
:1001C000205030404040504806C0C801B7010E944E
:1001D00030059B01AC01B901CA011F910F91FF903D
:1001E000EF900895A0E0B0E0E8EFF0E00C94EE1599
:1001F000DC012B01FA019C91923008F439C1EB012A
:100200008881823008F433C1943069F4843009F075
:100210002FC111969C9111978981981709F428C1D3
:10022000ABE8B0E025C1843009F421C18230A9F4E3
:10023000923009F01DC19A01AD0188E0EA010990F0
:10024000AE01E90109929E018150C1F7E201898165
:1002500011969C918923818308C1923009F407C1CA
:1002600012962D903C901397EB018A819B811496F6
:10027000AD90BD90CD90DC901797EC80FD800E8105
:100280001F819101281B390BB90137FF04C0662774
:100290007727621B730B603271050CF061C0121678
:1002A00013066CF537014801062E04C09694879416
:1002B000779467940A94D2F721E030E040E050E070
:1002C00004C0220F331F441F551F6A95D2F72150D7
:1002D0003040404050402E213F21402351232115E2
:1002E00031054105510521F021E030E040E050E0CA
:1002F00079018A01E628F728082919293CC0232B0F
:10030000D1F1260E371E35014601062E04C0969403
:100310008794779467940A94D2F721E030E040E024
:1003200050E004C0220F331F441F551F6A95D2F7B7
:1003300021503040404050402A213B214C215D213A
:10034000211531054105510521F021E030E040E063
:1003500050E059016A01A628B728C828D9280BC03F
:10036000821593052CF01C01AA24BB24650103C04F
:10037000EE24FF24870111969C91D20111968C9155
:10038000981709F445C0992339F0A80197012A1953
:100390003B094C095D0906C0A60195012E193F09CC
:1003A000400B510B57FD08C01182338222822483F7
:1003B0003583468357831DC081E081833382228247
:1003C00088279927DC01821B930BA40BB50B848330
:1003D0009583A683B7830DC0220F331F441F551F7B
:1003E0002483358346835783828193810197938346
:1003F00082832481358146815781DA01C9010197C1
:10040000A109B1098F5F9F4FAF4FBF4328F30BC0C6
:10041000918333822282EA0CFB1C0C1D1D1DE48299
:10042000F5820683178383E08083248135814681AA
:10043000578157FF1AC0C901AA2797FDA095BA2F67
:1004400081709070A070B07056954795379527953C
:10045000822B932BA42BB52B84839583A683B78300
:1004600082819381019693838283DF0101C0D2014F
:10047000CD01CDB7DEB7E2E10C940A16A0E2B0E000
:10048000E4E4F2E00C94FA1569837A838B839C830D
:100490002D833E834F835887E9E0EE2EF12CEC0E3E
:1004A000FD1ECE010196B7010E9421078E010F5E4D
:1004B0001F4FCE010596B8010E9421078A8991E05D
:1004C00089278A8BC701B801AE01475E5F4F0E9442
:1004D000F2000E944C06A096E6E00C941616A0E2EC
:1004E000B0E0E5E7F2E00C94FA1569837A838B8338
:1004F0009C832D833E834F835887F9E0EF2EF12CA8
:10050000EC0EFD1ECE010196B7010E9421078E015F
:100510000F5E1F4FCE010596B8010E942107C7014B
:10052000B801AE01475E5F4F0E94F2000E944C0688
:10053000A096E6E00C941616A0E2B0E0E2EAF2E043
:100540000C94EE1569837A838B839C832D833E8381
:100550004F835887CE010196BE01675F7F4F0E948F
:100560002107CE010596BE016F5E7F4F0E942107D5
:100570009985923088F089898230C8F0943019F4D6
:10058000823051F404C0843029F4923081F48BE835
:1005900090E0C6C0923049F420E09A858A89981389
:1005A00021E02A87CE010996BBC0823049F420E0C1
:1005B0009A858A89981321E02A8BCE014196B0C092
:1005C0002D843E844F8458886D887E888F88988CCF
:1005D000EE24FF248701AA24BB24650140E050E0FB
:1005E00060E070E0E0E0F0E0C10181709070892B84
:1005F000E9F0E60CF71C081D191D9A01AB012A0D44
:100600003B1D4C1D5D1D80E090E0A0E0B0E0E614D5
:10061000F7040805190520F481E090E0A0E0B0E0BF
:10062000BA01A901480F591F6A1F7B1FAA0CBB1CE6
:10063000CC1CDD1C97FE08C081E090E0A0E0B0E09B
:10064000A82AB92ACA2ADB2A3196E032F10549F0F4
:10065000660C771C881C991C5694479437942794F1
:10066000C3CFFA85EA892B893C898B859C85280F25
:10067000391F2E5F3F4F17C0CA0181709070892BC0
:1006800061F016950795F794E79480E090E0A0E07C
:10069000B0E8E82AF92A0A2B1B2B7695679557951F
:1006A00047952F5F3F4F77FDE7CF0CC0440F551F95
:1006B000661F771F17FD4160EE0CFF1C001F111F06
:1006C00021503040403090E0590790E0690790E4B5
:1006D000790760F32B8F3C8FDB01CA018F77907015
:1006E000A070B07080349105A105B10561F447FD9B
:1006F0000AC0E114F1040105110529F0405C5F4FC7
:100700006F4F7F4F40781A8EFE1711F081E08A8F6D
:100710004D8F5E8F6F8F78A383E0898FCE014996CE
:100720000E944C06A096E2E10C940A16A8E1B0E003
:10073000ECE9F3E00C94F61569837A838B839C8350
:100740002D833E834F835887B9E0EB2EF12CEC0EBE
:10075000FD1ECE010196B7010E9421078E010F5E9A
:100760001F4FCE010596B8010E942107298522302E
:1007700008F47EC03989323010F4B8017CC08A8513
:100780009A8989278A87243011F0223031F423177F
:1007900009F06EC06BE870E06EC0343039F41D862D
:1007A0001E861F86188A1C861B8604C0323021F4E0
:1007B00084E08987B7015FC02B853C858B899C8944
:1007C000281B390B3C872B87ED84FE840F85188905
:1007D000AD88BE88CF88D88CEA14FB040C051D05B3
:1007E00040F4EE0CFF1C001F111F215030403C87CD
:1007F0002B8720E030E040E050E080E090E0A0E097
:10080000B0E460E070E0EA14FB040C051D0540F064
:10081000282B392B4A2B5B2BEA18FB080C091D09E6
:10082000B695A79597958795EE0CFF1C001F111F95
:100830006F5F7F4F6F31710531F7DA01C9018F7733
:100840009070A070B07080349105A105B10561F47D
:1008500027FD0AC0E114F1040105110529F0205C0F
:100860003F4F4F4F5F4F20782D873E874F87588BE4
:10087000BE01675F7F4FCB010E944C066896EAE09D
:100880000C941216A8E1B0E0E8E4F4E00C94FA1538
:1008900069837A838B839C832D833E834F83588720
:1008A00089E0E82EF12CEC0EFD1ECE010196B70179
:1008B0000E9421078E010F5E1F4FCE010596B801E1
:1008C0000E9421078985823040F08989823028F092
:1008D000C701B8010E94990701C08FEF6896E6E052
:1008E0000C941616A8E1B0E0E8E7F4E00C94FA15D1
:1008F00069837A838B839C832D833E834F835887C0
:1009000089E0E82EF12CEC0EFD1ECE010196B70118
:100910000E9421078E010F5E1F4FCE010596B80180
:100920000E9421078985823040F08989823028F031
:10093000C701B8010E94990701C08FEF6896E6E0F1
:100940000C941616A8E1B0E0E8EAF4E00C94FA156D
:1009500069837A838B839C832D833E834F8358875F
:1009600089E0E82EF12CEC0EFD1ECE010196B701B8
:100970000E9421078E010F5E1F4FCE010596B80120
:100980000E9421078985823040F08989823028F0D1
:10099000C701B8010E94990701C081E06896E6E0AE
:1009A0000C941616A8E0B0E0E8EDF4E00C94F7150E
:1009B0009B01AC0183E08983DA01C9018827B7FD77
:1009C00083959927AA27BB27B82E21153105410504
:1009D000510519F482E089833AC08823A9F02030B8
:1009E00080E0380780E0480780E8580729F460E095
:1009F00070E080E09FEC30C0EE24FF248701E21A13
:100A0000F30A040B150B02C079018A018EE1C82E8E
:100A1000D12CDC82CB82ED82FE820F831887C80145
:100A2000B7010E94FD0501971816190684F4082ED7
:100A300004C0EE0CFF1C001F111F0A94D2F7ED82B8
:100A4000FE820F831887C81AD90ADC82CB82BA8249
:100A5000CE0101960E944C062896E9E00C941316EC
:100A6000ACE0B0E0E6E3F5E00C94FE1569837A8330
:100A70008B839C83CE010196BE016B5F7F4F0E94EA
:100A800021078D81823061F1823050F1843021F470
:100A90008E81882351F12EC02F81388537FD20C0EB
:100AA0006E812F3131051CF06623F9F023C08EE1F1
:100AB00090E0821B930B29853A854B855C8504C0A9
:100AC00056954795379527958A95D2F76623B1F0C5
:100AD00050954095309521953F4F4F4F5F4F0EC039
:100AE00020E030E040E050E009C02FEF3FEF4FEF53
:100AF0005FE704C020E030E040E050E8B901CA01FF
:100B00002C96E2E00C941A16A8E0B0E0EAE8F5E0D2
:100B10000C94F6157B018C01611571058105910519
:100B200019F482E0898360C083E089838EE1C82E56
:100B3000D12CDC82CB82ED82FE820F831887C80124
:100B4000B7010E94FD05FC013197F7FF3BC022274A
:100B500033272E1B3F0B57016801022E04C0D69489
:100B6000C794B794A7940A94D2F740E050E060E0AD
:100B700070E081E090E0A0E0B0E004C0880F991F31
:100B8000AA1FBB1F2A95D2F70197A109B1098E218F
:100B90009F21A023B1230097A105B10521F041E0D9
:100BA00050E060E070E04A295B296C297D294D8383
:100BB0005E836F8378878EE190E08E1B9F0B9C8312
:100BC0008B8312C0309781F00E2E04C0EE0CFF1CF8
:100BD000001F111F0A94D2F7ED82FE820F8318873F
:100BE000CE1ADF0ADC82CB821A82CE0101960E94E5
:100BF0004C062896EAE00C941216EF92FF920F939F
:100C00001F937B018C0180E0E81680E0F80681E00C
:100C1000080780E0180788F48FEFE816F104010553
:100C2000110531F028F088E090E0A0E0B0E017C0B6
:100C300080E090E0A0E0B0E012C080E0E81680E044
:100C4000F80680E0080781E0180728F088E190E0C6
:100C5000A0E0B0E004C080E190E0A0E0B0E020E2DD
:100C600030E040E050E0281B390B4A0B5B0B04C01E
:100C700016950795F794E7948A95D2F7F701ED5604
:100C8000FF4F8081281B310941095109C9011F917A
:100C90000F91FF90EF900895DF92EF92FF920F93E4
:100CA0001F93FC01E480F58006811781D18080814B
:100CB000823048F480E090E0A0E1B0E0E82AF92A30
:100CC0000A2B1B2BA5C0843009F49FC0823021F46D
:100CD000EE24FF24870105C0E114F104010511058C
:100CE00019F4E0E0F0E096C0628173819FEF623812
:100CF00079070CF05BC022E83FEF261B370B2A3147
:100D000031052CF020E030E040E050E02AC0B8018E
:100D1000A701022E04C076956795579547950A94CA
:100D2000D2F781E090E0A0E0B0E004C0880F991F06
:100D3000AA1FBB1F2A95D2F70197A109B1098E21DD
:100D40009F21A023B1230097A105B10521F081E0E7
:100D500090E0A0E0B0E09A01AB01282B392B4A2BA0
:100D60005B2BDA01C9018F779070A070B07080346E
:100D70009105A105B10539F427FF09C0205C3F4F5B
:100D80004F4F5F4F04C0215C3F4F4F4F5F4FE0E03C
:100D9000F0E02030A0E03A07A0E04A07A0E45A07BC
:100DA00010F0E1E0F0E079018A0127C060387105B8
:100DB00064F5FB01E158FF4FD801C7018F779070B0
:100DC000A070B07080349105A105B10539F4E7FE3B
:100DD0000DC080E490E0A0E0B0E004C08FE390E0BC
:100DE000A0E0B0E0E80EF91E0A1F1B1F17FF05C0A8
:100DF00016950795F794E794319687E01695079531
:100E0000F794E7948A95D1F705C0EE24FF24870173
:100E1000EFEFF0E06E2F679566276795902F9F772D
:100E2000D794DD24D7948E2F8695492F462B582FA3
:100E30005D29B701CA011F910F91FF90EF90DF90DC
:100E40000895FC01DB01408151812281622F6F777F
:100E500070E0221F2227221F9381892F880F822B67
:100E6000282F30E0991F9927991F11969C9311976D
:100E700021153105A9F5411551056105710511F4DB
:100E800082E037C082E89FEF13969C938E9312976F
:100E90009A01AB0167E0220F331F441F551F6A956B
:100EA000D1F783E08C930DC0220F331F441F551FD1
:100EB00012968D919C911397019713969C938E9304
:100EC0001297203080E0380780E0480780E4580718
:100ED00058F314962D933D934D935C931797089573
:100EE0002F3F310579F4411551056105710519F45C
:100EF00084E08C93089564FF03C081E08C9312C05A
:100F00001C9210C02F57304013963C932E9312978B
:100F100083E08C9387E0440F551F661F771F8A95E7
:100F2000D1F7706414964D935D936D937C931797EE
:100F300008951F93DC01FB019C91923008F447C097
:100F40008081823008F443C0943051F411961C9192
:100F5000843099F58181682F70E0611B71093FC071
:100F6000843021F0923031F48230B9F181818823CC
:100F700089F12DC011961C9111978230F1F0818179
:100F80001817D9F412962D913C9113978281938171
:100F90008217930794F028173907BCF014968D91A7
:100FA0009D910D90BC91A02D248135814681578162
:100FB000281739074A075B0718F4112341F00AC0C4
:100FC00082179307A407B50740F4112319F061E0D5
:100FD00070E005C06FEF7FEF02C060E070E0CB0112
:100FE0001F910895DF93CF9300D00F92CDB7DEB756
:100FF0000E9492089B838A838A819B81CC01A0E016
:10100000B0E0BC01CD010E948405DC01CB01BC0134
:10101000CD0120E030EC4FE754E40E949603DC0160
:10102000CB01BC01CD0120E030E048EC52EC0E9445
:101030009C02DC01CB01BC01CD0120E030E048EC9A
:1010400052E40E946F02DC01CB01BC01CD010E9481
:10105000C600DC01CB01898389810F900F900F902E
:10106000CF91DF910895DF93CF93CDB7DEB7A7E29D
:10107000B0E0E7E2F0E0808180648C93A7E2B0E02A
:10108000E7E2F0E080818F778C93A7E2B0E0E7E2BF
:10109000F0E080818F7D8C93A6E2B0E0E6E2F0E0A4
:1010A000808184608C93A6E2B0E0E6E2F0E080818B
:1010B00082608C93A6E2B0E0E6E2F0E0808181609D
:1010C0008C93A6E2B0E0E6E2F0E0808180688C9349
:1010D000CF91DF910895DF93CF930F92CDB7DEB715
:1010E0008983A7E2B0E0E7E2F0E08081807E8C9324
:1010F000A7E2B0E0E7E2F0E090818981892B8C9350
:10110000A6E2B0E0E6E2F0E0808180648C93A6E2A3
:10111000B0E0E6E2F0E0808188608C930F90CF91A0
:10112000DF910895DF93CF93CDB7DEB7E4E2F0E02F
:1011300080819181CF91DF910895DF93CF9300D08B
:10114000CDB7DEB79A83898389819A81009731F080
:1011500089819A8190939501809394010F900F90CB
:10116000CF91DF9108951F920F920FB60F92112425
:101170002F933F934F935F936F937F938F939F939F
:10118000AF93BF93EF93FF93DF93CF93CDB7DEB7CA
:101190008091940190919501009729F0E09194013C
:1011A000F09195010995CF91DF91FF91EF91BF915A
:1011B000AF919F918F917F916F915F914F913F91EF
:1011C0002F910F900FBE0F901F901895DF93CF9324
:1011D000CDB7DEB727970FB6F894DEBF0FBECDBFF1
:1011E0008B836C834D838B81282F30E03F832E834C
:1011F0008E819F8181309105D1F02E813F812230F7
:1012000031052CF48E819F81009761F049C02E81B9
:101210003F812230310581F08E819F81833091059D
:1012200081F03EC08AE390E09A8389830EC087E311
:1012300090E09A83898309C084E390E09A8389834C
:1012400004C081E390E09A8389838D818823A9F487
:10125000E981FA818081482F8C81282F30E081E05C
:1012600090E0022E02C0880F991F0A94E2F7809541
:101270008423E981FA81808313C0E981FA81808126
:10128000482F8C81282F30E081E090E0022E02C0B0
:10129000880F991F0A94E2F7842BE981FA818083F1
:1012A00027960FB6F894DEBF0FBECDBFCF91DF916A
:1012B0000895DF93CF93CDB7DEB727970FB6F89495
:1012C000DEBF0FBECDBF8B836C834D838B81282FF8
:1012D00030E03F832E838E819F8181309105D1F054
:1012E0002E813F81223031052CF48E819F81009721
:1012F00061F049C02E813F812230310581F08E811D
:101300009F818330910581F03EC08BE390E09A830A
:1013100089830EC088E390E09A83898309C085E3BE
:1013200090E09A83898304C082E390E09A83898362
:101330008D818130A1F4E981FA818081482F8C81EF
:10134000282F30E081E090E0022E02C0880F991F24
:101350000A94E2F7842BE981FA81808314C0E98141
:10136000FA818081482F8C81282F30E081E090E045
:10137000022E02C0880F991F0A94E2F780958423F9
:10138000E981FA81808327960FB6F894DEBF0FBEFD
:10139000CDBFCF91DF910895DF93CF93CDB7DEB767
:1013A00028970FB6F894DEBF0FBECDBF8B836C833A
:1013B0005E834D838B81282F30E038872F834F81C8
:1013C000588541305105D9F08F819885823091053B
:1013D00034F42F8138852115310561F031C04F81FA
:1013E00058854230510581F08F8198858330910571
:1013F00081F026C089E390E09A8389830EC086E35A
:1014000090E09A83898309C083E390E09A8389837B
:1014100004C080E390E09A838983E981FA81808126
:10142000282F30E08C81882F90E0A90102C05595CB
:1014300047958A95E2F7CA018170ED81FE8180832C
:1014400028960FB6F894DEBF0FBECDBFCF91DF91C7
:101450000895DF93CF9300D000D000D0CDB7DEB792
:101460008B836C838B81282F30E03E832D838D818D
:101470009E8181309105D1F02D813E812230310550
:101480002CF48D819E81009761F029C02D813E81D1
:101490002230310581F08D819E818330910581F06C
:1014A0001EC08AE390E09A8389830EC087E390E0B0
:1014B0009A83898309C084E390E09A83898304C076
:1014C00081E390E09A8389838C81882321F4E981E8
:1014D000FA81108204C0E981FA818FEF8083269619
:1014E0000FB6F894DEBF0FBECDBFCF91DF91089548
:1014F000DF93CF9300D000D0CDB7DEB789836A8366
:101500008981282F30E03C832B838B819C81813023
:101510009105D1F02B813C81223031052CF48B8157
:101520009C81009761F01EC02B813C8122303105E7
:1015300081F08B819C818330910581F013C0EBE3B6
:10154000F0E08A8180830EC0E8E3F0E08A81808346
:1015500009C0E5E3F0E08A81808304C0E2E3F0E0C3
:101560008A8180830F900F900F900F90CF91DF9121
:101570000895DF93CF9300D000D00F92CDB7DEB7A0
:1015800089837B836A838981282F30E03D832C8384
:101590008C819D8181309105E1F02C813D8122304B
:1015A00031052CF48C819D81009761F026C02C813F
:1015B0003D8122303105A1F08C819D8183309105E0
:1015C000B1F01BC0E9E3F0E08081EA81FB81808318
:1015D00014C0E6E3F0E08081EA81FB8180830DC0E6
:1015E000E3E3F0E08081EA81FB81808306C0E0E3F1
:1015F000F0E08081EA81FB8180830F900F900F9053
:101600000F900F90CF91DF910895DF93CF93CDB7D7
:10161000DEB7AFE5B0E0EFE5F0E0808180688C9365
:10162000CF91DF910895DF93CF93CDB7DEB7AFE5CC
:10163000B0E0EFE5F0E080818F778C93CF91DF9180
:101640000895DF93CF93CDB7DEB76E970FB6F894BA
:10165000DEBF0FBECDBF8E8F80E061E040E00E9414
:1016600059098E8D8D8F8E8D82958F70982F9170E8
:1016700080E063E0492F0E9459098D8D8E8F8E8DF9
:10168000829586958770982F917080E064E0492F4D
:101690000E9459098D8D8E8F8E8D829586958695A7
:1016A0008370982F917080E065E0492F0E9459095E
:1016B0008D8D8E8F8E8D982F991F9927991F80E081
:1016C00066E0492F0E94590980E062E041E00E94F3
:1016D000590980E090E0A0E0B0E4898F9A8FAB8F49
:1016E000BC8F698D7A8D8B8D9C8D20E030E04AE730
:1016F00055E40E949C02DC01CB018D8B9E8BAF8B4D
:10170000B88F6D897E898F89988D20E030E040E820
:101710005FE30E94A20488232CF481E090E09C8B7C
:101720008B8B3FC06D897E898F89988D20E03FEF3C
:101730004FE757E40E94420418164CF5698D7A8DE4
:101740008B8D9C8D20E030E040E251E40E949C02B1
:10175000DC01CB01BC01CD010E94C600DC01CB0144
:101760009C8B8B8B0FC080E991E09A8B898B898948
:101770009A890197F1F79A8B898B8B899C890197BC
:101780009C8B8B8B8B899C89009769F714C06D8922
:101790007E898F89988D0E94C600DC01CB019C8BCD
:1017A0008B8B8B899C89988B8F878F8598890197E4
:1017B000F1F7988B8F8780E062E040E00E94590942
:1017C0008D8D8E8F8E8D982F917080E063E0492FE4
:1017D0000E9459098D8D8E8F8E8D8695982F9170D0
:1017E00080E064E0492F0E9459098D8D8E8F8E8D87
:1017F00086958695982F917080E065E0492F0E942C
:1018000059098D8D8E8F8E8D869586958695982F0C
:10181000917080E066E0492F0E94590980E062E003
:1018200041E00E94590980E090E0A0E0B0E48B879D
:101830009C87AD87BE876B857C858D859E8520E0E6
:1018400030E04AE755E40E949C02DC01CB018F8323
:101850009887A987BA876F81788589859A8520E0DE
:1018600030E040E85FE30E94A20488232CF481E08A
:1018700090E09E838D833FC06F81788589859A85AE
:1018800020E03FEF4FE757E40E94420418164CF562
:101890006B857C858D859E8520E030E040E251E4BB
:1018A0000E949C02DC01CB01BC01CD010E94C6005C
:1018B000DC01CB019E838D830FC080E991E09C8386
:1018C0008B838B819C810197F1F79C838B838D8126
:1018D0009E8101979E838D838D819E81009769F7FC
:1018E00014C06F81788589859A850E94C600DC01C5
:1018F000CB019E838D838D819E819A83898389818B
:101900009A810197F1F79A83898380E062E040E051
:101910000E9459096E960FB6F894DEBF0FBECDBF78
:10192000CF91DF910895DF93CF93CDB7DEB7AC971A
:101930000FB6F894DEBF0FBECDBF8CA78091960185
:10194000909197018031910521F480EC0E94210B48
:1019500083C080919601909197018032910509F0A2
:101960007BC080E090E4ACE1B6E48FA398A7A9A780
:10197000BAA76FA178A589A59AA520E030E04AE72B
:1019800055E40E949C02DC01CB018BA39CA3ADA378
:10199000BEA36BA17CA18DA19EA120E030E040E818
:1019A0005FE30E94A20488232CF481E090E09AA3D4
:1019B00089A33FC06BA17CA18DA19EA120E03FEF38
:1019C0004FE757E40E94420418164CF56FA178A522
:1019D00089A59AA520E030E040E251E40E949C02F3
:1019E000DC01CB01BC01CD010E94C600DC01CB01B2
:1019F0009AA389A30FC080E991E098A38F8F8F8D60
:101A000098A10197F1F798A38F8F89A19AA10197C7
:101A10009AA389A389A19AA1009769F714C06BA121
:101A20007CA18DA19EA10E94C600DC01CB019AA3DE
:101A300089A389A19AA19E8F8D8F8D8D9E8D0197EF
:101A4000F1F79E8F8D8F81E00E94210B8FEF9FEF2A
:101A500090939701809396018091960190919701C0
:101A60000196909397018093960180E061E041E0B8
:101A70000E9459098CA58BA78CA582958F70982FF1
:101A8000917080E063E0492F0E9459098BA58CA7D3
:101A90008CA5829586958770982F917080E064E080
:101AA000492F0E9459098BA58CA78CA582958695F4
:101AB00086958370982F917080E065E0492F0E9491
:101AC00059098BA58CA78CA5982F991F9927991F29
:101AD00080E066E0492F0E94590980E062E041E021
:101AE0000E94590980E090E0A0E0B0E4898F9A8FCD
:101AF000AB8FBC8F698D7A8D8B8D9C8D20E030E013
:101B00004AE755E40E949C02DC01CB018D8B9E8B41
:101B1000AF8BB88F6D897E898F89988D20E030E0FA
:101B200040E85FE30E94A20488232CF481E090E067
:101B30009C8B8B8B3FC06D897E898F89988D20E02F
:101B40003FEF4FE757E40E94420418164CF5698DA9
:101B50007A8D8B8D9C8D20E030E040E251E40E9434
:101B60009C02DC01CB01BC01CD010E94C600DC015E
:101B7000CB019C8B8B8B0FC080E991E09A8B898B7A
:101B800089899A890197F1F79A8B898B8B899C892E
:101B900001979C8B8B8B8B899C89009769F714C06C
:101BA0006D897E898F89988D0E94C600DC01CB01EA
:101BB0009C8B8B8B8B899C89988B8F878F85988941
:101BC0000197F1F7988B8F8780E062E040E00E94F8
:101BD00059098BA58CA78CA5982F917080E063E0A4
:101BE000492F0E9459098BA58CA78CA58695982F03
:101BF000917080E064E0492F0E9459098BA58CA761
:101C00008CA586958695982F917080E065E0492F88
:101C10000E9459098BA58CA78CA5869586958695DB
:101C2000982F917080E066E0492F0E94590980E06A
:101C300062E041E00E94590980E090E0A0E0B0E459
:101C40008B879C87AD87BE876B857C858D859E85C0
:101C500020E030E04AE755E40E949C02DC01CB0121
:101C60008F839887A987BA876F81788589859A85B8
:101C700020E030E040E85FE30E94A20488232CF4D7
:101C800081E090E09E838D833FC06F817885898558
:101C90009A8520E03FEF4FE757E40E944204181670
:101CA0004CF56B857C858D859E8520E030E040E29B
:101CB00051E40E949C02DC01CB01BC01CD010E94D9
:101CC000C600DC01CB019E838D830FC080E991E0CB
:101CD0009C838B838B819C810197F1F79C838B8301
:101CE0008D819E8101979E838D838D819E8100973A
:101CF00069F714C06F81788589859A850E94C6002E
:101D0000DC01CB019E838D838D819E819A838983A3
:101D100089819A810197F1F79A83898380E062E053
:101D200040E00E945909AC960FB6F894DEBF0FBE92
:101D3000CDBFCF91DF910895DF93CF93CDB7DEB7BD
:101D4000AA970FB6F894DEBF0FBECDBF80E061E06A
:101D500041E00E94E60880E062E041E00E94E6087F
:101D600080E063E041E00E94E60880E064E041E05A
:101D70000E94E60880E065E041E00E94E60880E01D
:101D800066E041E00E94E60880E090E0A0E2B2E474
:101D90008FA398A7A9A7BAA76FA178A589A59AA587
:101DA00020E030E04AE755E40E949C02DC01CB01D0
:101DB0008BA39CA3ADA3BEA36BA17CA18DA19EA16F
:101DC00020E030E040E85FE30E94A20488232CF486
:101DD00081E090E09AA389A33FC06BA17CA18DA173
:101DE0009EA120E03FEF4FE757E40E9442041816FF
:101DF0004CF56FA178A589A59AA520E030E040E2D6
:101E000051E40E949C02DC01CB01BC01CD010E9487
:101E1000C600DC01CB019AA389A30FC080E991E041
:101E200098A38F8F8F8D98A10197F1F798A38F8F2B
:101E300089A19AA101979AA389A389A19AA1009740
:101E400069F714C06BA17CA18DA19EA10E94C60060
:101E5000DC01CB019AA389A389A19AA19E8F8D8FC2
:101E60008D8D9E8D0197F1F79E8F8D8F83E30E945C
:101E7000210B82E30E94210B88E20E94210B80E06B
:101E800090E0A0E2B2E4898F9A8FAB8FBC8F698D0E
:101E90007A8D8B8D9C8D20E030E04AE755E40E94DE
:101EA0009C02DC01CB018D8B9E8BAF8BB88F6D8933
:101EB0007E898F89988D20E030E040E85FE30E94C2
:101EC000A20488232CF481E090E09C8B8B8B3FC094
:101ED0006D897E898F89988D20E03FEF4FE757E429
:101EE0000E94420418164CF5698D7A8D8B8D9C8D5D
:101EF00020E030E040E251E40E949C02DC01CB0192
:101F0000BC01CD010E94C600DC01CB019C8B8B8BF8
:101F10000FC080E991E09A8B898B89899A89019712
:101F2000F1F79A8B898B8B899C8901979C8B8B8B82
:101F30008B899C89009769F714C06D897E898F8988
:101F4000988D0E94C600DC01CB019C8B8B8B8B890A
:101F50009C89988B8F878F8598890197F1F7988B4B
:101F60008F878DE00E94210B80E090E0A0E2B2E438
:101F70008B879C87AD87BE876B857C858D859E858D
:101F800020E030E04AE755E40E949C02DC01CB01EE
:101F90008F839887A987BA876F81788589859A8585
:101FA00020E030E040E85FE30E94A20488232CF4A4
:101FB00081E090E09E838D833FC06F817885898525
:101FC0009A8520E03FEF4FE757E40E94420418163D
:101FD0004CF56B857C858D859E8520E030E040E268
:101FE00051E40E949C02DC01CB01BC01CD010E94A6
:101FF000C600DC01CB019E838D830FC080E991E098
:102000009C838B838B819C810197F1F79C838B83CD
:102010008D819E8101979E838D838D819E81009706
:1020200069F714C06F81788589859A850E94C600FA
:10203000DC01CB019E838D838D819E819A83898370
:1020400089819A810197F1F79A83898381E00E94BF
:10205000210BAA960FB6F894DEBF0FBECDBFCF916D
:10206000DF910895DF93CF9300D000D0CDB7DEB7D6
:102070009C838B831A8219820FC029813A818B81BC
:102080009C81FC01E20FF31F80810E94930C8981E7
:102090009A8101969A83898329813A818B819C81D7
:1020A000FC01E20FF31F8081882339F70F900F9016
:1020B0000F900F90CF91DF910895DF93CF9300D0D1
:1020C000CDB7DEB789836A838981882361F48A81E9
:1020D000882F90E090939701809396018A81806881
:1020E0000E94210B0FC08981813061F48A81882F81
:1020F00090E0409690939701809396018A81806C3E
:102100000E94210B0F900F90CF91DF9108950F93B4
:102110001F93DF93CF93CDB7DEB76C970FB6F894CC
:10212000DEBF0FBECDBF698F7A8F8B8F9C8F698D7D
:102130007A8D8B8D9C8D0E943005DC01CB019C83B8
:102140008B8381E090E09A8389830FC08B819C818F
:102150002AE030E0B9010E94DB15CB019C838B8320
:1021600089819A8101969A8389838B819C810097CA
:1021700069F789818E5F282F898D9A8DAB8DBC8DF3
:10218000FE013596BC01CD01422F22E08F010E9455
:102190002516CE0105960E9432106C960FB6F89463
:1021A000DEBF0FBECDBFCF91DF911F910F9108957C
:1021B000DF93CF93CDB7DEB766970FB6F894DEBF47
:1021C0000FBECDBF9E8B8D8B00D000D000D0EDB761
:1021D000FEB73196CE0101969183808380E690E030
:1021E000938382838D899E89958384830E9446167A
:1021F0008DB79EB706960FB6F8949EBF0FBE8DBFE3
:10220000CE0101960E94321066960FB6F894DEBF9A
:102210000FBECDBFCF91DF910895DF93CF93CDB7A0
:10222000DEB72E970FB6F894DEBF0FBECDBF10926B
:1022300097011092960181E00E94210B80E090E0CE
:10224000A0E0B0E48B879C87AD87BE876B857C85DB
:102250008D859E8520E030E04AE755E40E949C028F
:10226000DC01CB018F839887A987BA876F81788536
:1022700089859A8520E030E040E85FE30E94A2046F
:1022800088232CF481E090E09E838D833FC06F8192
:10229000788589859A8520E03FEF4FE757E40E94D3
:1022A000420418164CF56B857C858D859E8520E053
:1022B00030E040E251E40E949C02DC01CB01BC0111
:1022C000CD010E94C600DC01CB019E838D830FC02F
:1022D00080E991E09C838B838B819C810197F1F74E
:1022E0009C838B838D819E8101979E838D838D81BD
:1022F0009E81009769F714C06F81788589859A85DA
:102300000E94C600DC01CB019E838D838D819E815E
:102310009A83898389819A810197F1F79A838983C6
:1023200080E80E94210B2E960FB6F894DEBF0FBEF8
:10233000CDBFCF91DF910895DF93CF93CDB7DEB7B7
:102340000E9433080E949C0E0E94050B80E00E94B0
:102350006B0882EF92E10E949D08F8CFDF93CF9344
:10236000CDB7DEB7A0970FB6F894DEBF0FBECDBFD6
:102370000E94920898A38F8F8F8D98A1CC01A0E026
:10238000B0E0BC01CD010E948405DC01CB01BC01A1
:10239000CD0126EF38E24CE950E40E949C02DC01BA
:1023A000CB01BC01CD010E943005DC01CB019E8F29
:1023B0008D8F8D8D9E8DAA2797FDA095BA2FBC017C
:1023C000CD010E94D204DC01CB01BC01CD0120E093
:1023D00030E040E251E40E949603DC01CB01BC01F5
:1023E000CD010E943005DC01CB019E8F8D8F80E0F6
:1023F00090E0A8E4B2E4898F9A8FAB8FBC8F698D8F
:102400007A8D8B8D9C8D20E030E04AE755E40E9468
:102410009C02DC01CB018D8B9E8BAF8BB88F6D89BD
:102420007E898F89988D20E030E040E85FE30E944C
:10243000A20488232CF481E090E09C8B8B8B3FC01E
:102440006D897E898F89988D20E03FEF4FE757E4B3
:102450000E94420418164CF5698D7A8D8B8D9C8DE7
:1024600020E030E040E251E40E949C02DC01CB011C
:10247000BC01CD010E94C600DC01CB019C8B8B8B83
:102480000FC080E991E09A8B898B89899A8901979D
:10249000F1F79A8B898B8B899C8901979C8B8B8B0D
:1024A0008B899C89009769F714C06D897E898F8913
:1024B000988D0E94C600DC01CB019C8B8B8B8B8995
:1024C0009C89988B8F878F8598890197F1F7988BD6
:1024D0008F8783E690E00E9432108D8D9E8D0E9442
:1024E000D81081E790E00E94321080E090E0A8ECE4
:1024F000B3E48B879C87AD87BE876B857C858D8594
:102500009E8520E030E04AE755E40E949C02DC0111
:10251000CB018F839887A987BA876F817885898552
:102520009A8520E030E040E85FE30E94A20488231F
:102530002CF481E090E09E838D833FC06F8178858D
:1025400089859A8520E03FEF4FE757E40E944204D7
:1025500018164CF56B857C858D859E8520E030E0D6
:1025600040E251E40E949C02DC01CB01BC01CD01A0
:102570000E94C600DC01CB019E838D830FC080E9E1
:1025800091E09C838B838B819C810197F1F79C83E5
:102590008B838D819E8101979E838D838D819E810A
:1025A000009769F714C06F81788589859A850E94A4
:1025B000C600DC01CB019E838D838D819E819A8331
:1025C000898389819A810197F1F79A8389830E948F
:1025D0000D11A0960FB6F894DEBF0FBECDBFCF9100
:1025E000DF910895DF93CF93CDB7DEB76D970FB628
:1025F000F894DEBF0FBECDBF0E94F2078D8F80E042
:1026000090E0A8E4B2E4898F9A8FAB8FBC8F698D7C
:102610007A8D8B8D9C8D20E030E04AE755E40E9456
:102620009C02DC01CB018D8B9E8BAF8BB88F6D89AB
:102630007E898F89988D20E030E040E85FE30E943A
:10264000A20488232CF481E090E09C8B8B8B3FC00C
:102650006D897E898F89988D20E03FEF4FE757E4A1
:102660000E94420418164CF5698D7A8D8B8D9C8DD5
:1026700020E030E040E251E40E949C02DC01CB010A
:10268000BC01CD010E94C600DC01CB019C8B8B8B71
:102690000FC080E991E09A8B898B89899A8901978B
:1026A000F1F79A8B898B8B899C8901979C8B8B8BFB
:1026B0008B899C89009769F714C06D897E898F8901
:1026C000988D0E94C600DC01CB019C8B8B8B8B8983
:1026D0009C89988B8F878F8598890197F1F7988BC4
:1026E0008F8784E790E00E9432108D8D882F90E0D4
:1026F0000E94D8108DE790E00E94321080E090E0B8
:10270000A8ECB3E48B879C87AD87BE876B857C85FF
:102710008D859E8520E030E04AE755E40E949C02CA
:10272000DC01CB018F839887A987BA876F81788571
:1027300089859A8520E030E040E85FE30E94A204AA
:1027400088232CF481E090E09E838D833FC06F81CD
:10275000788589859A8520E03FEF4FE757E40E940E
:10276000420418164CF56B857C858D859E8520E08E
:1027700030E040E251E40E949C02DC01CB01BC014C
:10278000CD010E94C600DC01CB019E838D830FC06A
:1027900080E991E09C838B838B819C810197F1F789
:1027A0009C838B838D819E8101979E838D838D81F8
:1027B0009E81009769F714C06F81788589859A8515
:1027C0000E94C600DC01CB019E838D838D819E819A
:1027D0009A83898389819A810197F1F79A83898302
:1027E0000E940D116D960FB6F894DEBF0FBECDBFDF
:1027F000CF91DF910895DF93CF93CDB7DEB7A19747
:102800000FB6F894DEBF0FBECDBF0E94920899A309
:1028100088A380E092E09F8F8E8F28A139A18E8DB2
:102820009F8D8217930730F482E060E041E00E94C0
:10283000590905C082E060E040E00E94590988A182
:1028400099A12FEF33E0B9010E94C715CB019C017C
:1028500084E690E0AC01249FC001259F900D349F39
:10286000900D11248D8F80E090E0A8E4B2E4898F70
:102870009A8FAB8FBC8F698D7A8D8B8D9C8D20E06C
:1028800030E04AE755E40E949C02DC01CB018D8BCD
:102890009E8BAF8BB88F6D897E898F89988D20E054
:1028A00030E040E85FE30E94A20488232CF481E03A
:1028B00090E09C8B8B8B3FC06D897E898F89988D32
:1028C00020E03FEF4FE757E40E94420418164CF512
:1028D000698D7A8D8B8D9C8D20E030E040E251E453
:1028E0000E949C02DC01CB01BC01CD010E94C6000C
:1028F000DC01CB019C8B8B8B0FC080E991E09A8B24
:10290000898B89899A890197F1F79A8B898B8B89B1
:102910009C8901979C8B8B8B8B899C89009769F78D
:1029200014C06D897E898F89988D0E94C600DC0154
:10293000CB019C8B8B8B8B899C89988B8F878F8508
:1029400098890197F1F7988B8F8780E890E00E9433
:1029500032108D8D882F90E00E94D8108DE790E086
:102960000E94321080E090E0A8ECB3E48B879C8753
:10297000AD87BE876B857C858D859E8520E030E0A8
:102980004AE755E40E949C02DC01CB018F839887C3
:10299000A987BA876F81788589859A8520E030E09C
:1029A00040E85FE30E94A20488232CF481E090E0D9
:1029B0009E838D833FC06F81788589859A8520E0CD
:1029C0003FEF4FE757E40E94420418164CF56B8521
:1029D0007C858D859E8520E030E040E251E40E94B8
:1029E0009C02DC01CB01BC01CD010E94C600DC01D0
:1029F000CB019E838D830FC080E991E09C838B8304
:102A00008B819C810197F1F79C838B838D819E81C3
:102A100001979E838D838D819E81009769F714C0F5
:102A20006F81788589859A850E94C600DC01CB017B
:102A30009E838D838D819E819A83898389819A81EA
:102A40000197F1F79A8389830E940D11A1960FB621
:102A5000F894DEBF0FBECDBFCF91DF910895DF9315
:102A6000CF93CDB7DEB760970FB6F894DEBF0FBE39
:102A7000CDBF0E949208988B8F878F859889009789
:102A800031F082E061E041E00E94590905C082E036
:102A900061E040E00E94590980E090E0A8ECB2E4D7
:102AA0008B879C87AD87BE876B857C858D859E8552
:102AB00020E030E04AE755E40E949C02DC01CB01B3
:102AC0008F839887A987BA876F81788589859A854A
:102AD00020E030E040E85FE30E94A20488232CF469
:102AE00081E090E09E838D833FC06F8178858985EA
:102AF0009A8520E03FEF4FE757E40E944204181602
:102B00004CF56B857C858D859E8520E030E040E22C
:102B100051E40E949C02DC01CB01BC01CD010E946A
:102B2000C600DC01CB019E838D830FC080E991E05C
:102B30009C838B838B819C810197F1F79C838B8392
:102B40008D819E8101979E838D838D819E810097CB
:102B500069F714C06F81788589859A850E94C600BF
:102B6000DC01CB019E838D838D819E819A83898335
:102B700089819A810197F1F79A83898360960FB6CC
:102B8000F894DEBF0FBECDBFCF91DF910895AA1B91
:102B9000BB1B51E107C0AA1FBB1FA617B70710F048
:102BA000A61BB70B881F991F5A95A9F7809590957A
:102BB000BC01CD01089597FB092E07260AD077FDA9
:102BC00004D0E5DF06D000201AF4709561957F4FA0
:102BD0000895F6F7909581959F4F08952F923F9213
:102BE0004F925F926F927F928F929F92AF92BF921D
:102BF000CF92DF92EF92FF920F931F93CF93DF93C9
:102C0000CDB7DEB7CA1BDB0B0FB6F894DEBF0FBE25
:102C1000CDBF09942A88398848885F846E847D8472
:102C20008C849B84AA84B984C884DF80EE80FD8074
:102C30000C811B81AA81B981CE0FD11D0FB6F894EA
:102C4000DEBF0FBECDBFED010895EF92FF920F934F
:102C50001F93F22FF02E47FD02C0E4E001C0E4E133
:102C6000242F332727FD309537FF03C0309521955A
:102C70003F4F4F2D512F0F2FEE2E0E9447188F2DB3
:102C8000912F1F910F91FF90EF900895AEE0B0E06B
:102C9000ECE4F6E10C94FC150D891E8986E08C832A
:102CA0001A8309838FEF9FE79E838D839E01275EA2
:102CB0003F4FCE0101966F89788DA9010E946A1657
:102CC0002F813885020F131FF80110822E96E4E041
:102CD0000C941816ABE0B0E0E0E7F6E10C94EE15CA
:102CE0003C012B015A01FC0117821682838181FD70
:102CF00003C06FEF7FEFC6C19AE0892E1E010894D2
:102D0000211C311CF3012381F20123FD859123FF56
:102D100081912F01882309F4B2C1853239F423FD52
:102D2000859123FF81912F01853229F490E0B30131
:102D30000E94971AE7CF982FFF24EE249924FFE1F1
:102D4000FF15D0F09B3269F09C3228F4903259F094
:102D5000933291F40EC09D3249F0903369F441E012
:102D600024C052E0F52A84E0F82A28C098E0F92A25
:102D700025C0E0E1FE2A22C0F7FC29C0892F80533C
:102D80008A3070F4F6FE05C0989C902C1124980EA1
:102D900015C0E89CE02C1124E80EF0E2FF2A0EC0DA
:102DA0009E3229F4F6FC6BC140E4F42A07C09C363D
:102DB00019F450E8F52A02C0983649F4F20123FDCF
:102DC000959123FF91912F01992309F0B8CF892F75
:102DD0008554833018F08052833038F444E050E05A
:102DE000A40EB51E5FE359830FC0933631F09337BD
:102DF00079F0933509F056C020C0F50180818983B0
:102E000042E050E0A40EB51E610101E010E012C0E6
:102E1000F501C080D180F6FC03C06FEF7FEF02C0E8
:102E2000692D70E042E050E0A40EB51EC6010E947C
:102E30008C1A8C015FE7F52214C0F501C080D180A7
:102E4000F6FC03C06FEF7FEF02C0692D70E042E037
:102E500050E0A40EB51EC6010E94811A8C0150E8F4
:102E6000F52AF3FE07C01AC080E290E0B3010E9489
:102E7000971AEA948E2D90E008171907A8F30EC050
:102E8000F601F7FC8591F7FE81916F0190E0B301A7
:102E90000E94971AE110EA940150104001151105A3
:102EA00079F7EAC0943611F0993669F5F7FE08C053
:102EB000F501208131814281538184E090E00AC094
:102EC000F501808191819C01442737FD4095542F65
:102ED00082E090E0A80EB91E9FE6F92257FF09C0D4
:102EE00050954095309521953F4F4F4F5F4FE0E80B
:102EF000FE2ACA01B901A1012AE030E00E94C31AEA
:102F0000D82ED21840C0953729F41F2D1F7E2AE0F5
:102F100030E01DC01F2D197F9F3661F0903720F4DF
:102F2000983509F0ACC00FC0903739F0983709F0E8
:102F3000A6C004C028E030E00AC0106114FD14608F
:102F400020E130E004C014FD166020E132E017FFFC
:102F500008C0F501608171818281938144E050E075
:102F600008C0F50180819181BC0180E090E042E0E1
:102F700050E0A40EB51EA1010E94C31AD82ED2188B
:102F80008FE7F82EF122F6FE0BC05EEFF522D91482
:102F900038F4F4FE07C0F2FC05C08FEEF82202C040
:102FA0001D2D01C0192DF4FE0DC0FE01ED0DF11D0A
:102FB0008081803319F499EEF92208C01F5FF2FE78
:102FC00005C003C08F2D867809F01F5F0F2DF3FC1D
:102FD00014C0F0FE0FC01E1510F09D2C0BC09D2CD0
:102FE0009E0C911A1E2D06C080E290E0B3010E9453
:102FF000971A1F5F1E15C0F304C01E1510F4E11AC6
:1030000001C0EE2404FF0FC080E390E0B3010E94F2
:10301000971A02FF1DC001FD03C088E790E00EC0B3
:1030200088E590E00BC0802F867891F001FF02C008
:103030008BE201C080E2F7FC8DE290E0B3010E94D8
:10304000971A06C080E390E0B3010E94971A9A9401
:10305000D914C0F3DA94F101ED0DF11D808190E0F7
:10306000B3010E94971ADD20A9F706C080E290E024
:10307000B3010E94971AEA94EE20C1F743CEF30100
:1030800066817781CB012B96E2E10C940A16A9E0C8
:10309000B0E0EDE4F8E10C94F2156A01122FA02ED5
:1030A000BE2C2BE3201718F42CE3922E02C0902E96
:1030B0009394AE014F5F5F4F27E0092D0E94A9193D
:1030C000BC018981E82EFF24C701897090700197A7
:1030D00011F4ADE209C0B1FE02C0ABE205C0B0FC24
:1030E00002C0A0E001C0A0E2E3FE3BC0AA2311F4AD
:1030F00023E001C024E0211710F020E002C0121BE1
:10310000212FEB2CB4FE02C0322F0AC0F601322F61
:1031100080E202C0819331503323E1F7C20ED11C0B
:10312000AA2319F0F601A1936F01F6013196E2FE90
:1031300005C09EE4D6019C9381E404C09EE6D601BE
:103140009C9381E611968C9391833296DF01832FB5
:1031500090E202C09D9381508823E1F7E30FF11DB7
:1031600040C0E2FE42C0AA2311F423E001C024E0E3
:10317000211710F020E002C0121B212FEB2CB4FE0F
:1031800002C0922F0AC0F601922F80E202C0819302
:1031900091509923E1F7C20ED11CAA2319F0F60130
:1031A000A1936F01F6013196E2FE08C089E4D601D1
:1031B0008C938EE411968C9386E407C089E6D60141
:1031C0008C938EE611968C9386E681833296DF018E
:1031D000892F20E202C02D9381508823E1F7E90F67
:1031E000F11D10822EEF3FEFAFC0161617061CF030
:1031F00041E050E003C0AB014F5F5F4FAA2019F4DC
:1032000080E090E003C08A2D90E0019620E030E05D
:10321000AA2311F021E030E0240F351F280F391FB9
:10322000812F90E02817390714F020E002C0121B0C
:10323000212F4B2D50E0CA0180719070B4FC0DC05D
:10324000B3FC0BC0F601322F40E202C04193315073
:103250003323E1F7C20ED11C01C0322FAA2319F08B
:10326000F601A1936F01892B11F0132F0AC0F6010B
:10327000132F80E302C0819311501123E1F7C30E95
:10328000D11C092D060FBA8090E1892E912C8E2039
:103290009F20E4FE04C0F1E3BF1609F401501016AC
:1032A00014F001E003C0093008F008E09B0177FF4B
:1032B00002C020E030E0CB010196821B930BFE019F
:1032C0003196E80FF91F8EE2F82E3B01601A710863
:1032D0008A2D90E044275527481B590B8FEF2F3F2D
:1032E000380719F4D601FD926D01621773072CF0AF
:1032F0006216730614F4808101C080E321503040CF
:1033000031962417350724F0D6018D936D01E6CF51
:103310002617370749F4B5E3BB1528F0BB1621F48F
:103320008114910409F481E3F6018193D601812F80
:1033300090E202C09C93815011968823D9F7E10F47
:10334000F11D108220E030E0C9012996EEE00C94D6
:103350000E16283008F027E03327DA01990F311DC7
:1033600087FD916000966105710539F432602E5F2A
:103370003D9330E32A95E1F708959F3F30F0803880
:103380007105610509F03C5F3C5F3D93913008F0A9
:103390008068911DDF93CF931F930F93FF92EF925D
:1033A000192F987F9695E92F96959695E90FFF2707
:1033B000E255FF4F99273327EE24FF24A701E701A9
:1033C00005900894079428F4360FE71EF81E491F4D
:1033D000511D660F771F881F991F0694A1F705904E
:1033E000079428F4E70EF81E491F561FC11D770FDA
:1033F000881F991F661F0694A1F70590079428F46B
:10340000F80E491F561FC71FD11D880F991F661F31
:10341000771F0694A1F70590079420F4490F561FD3
:10342000C71FD81F990F661F771F881F0694A9F71B
:1034300084911095177041F0D695C795579547958B
:10344000F794E7941A95C1F7E4E5F0E068941590D5
:10345000159135916591959105907FE27395E118ED
:10346000F10A430B560BC90BD009C0F7E10CF11E52
:10347000431F561FC91FD01D7EF4703311F48A9567
:10348000E6CFE894015030F0080F0AF40027021745
:1034900008F4202F2395022F7A3328F079E37D93C7
:1034A0002A95E9F710C07D932A9589F60694979599
:1034B0006795379517951794E118F10A430B560B4A
:1034C000C90BD00998F023957E9173957A3308F053
:1034D00070E37C932013B8F77E9170617D9330F098
:1034E000839571E37D9370E32A95E1F71124EF90C2
:1034F000FF900F911F91CF91DF91992787FD9095B4
:103500000895FC010590615070400110D8F7809536
:1035100090958E0F9F1F0895FC016150704001909F
:103520000110D8F7809590958E0F9F1F08950F93E7
:103530001F93CF93DF938C01EB018B8181FF1BC025
:1035400082FF0DC02E813F818C819D812817390714
:1035500064F4E881F9810193F983E88306C0E88582
:10356000F985802F0995892B31F48E819F810196F1
:103570009F838E8302C00FEF1FEFC801DF91CF91B1
:103580001F910F910895FA01AA27283051F1203197
:1035900081F1E8946F936E7F6E5F7F4F8F4F9F4FE7
:1035A000AF4FB1E03ED0B4E03CD0670F781F891F29
:1035B0009A1FA11D680F791F8A1F911DA11D6A0FF7
:1035C000711D811D911DA11D20D009F468943F91AA
:1035D0002AE0269F11243019305D3193DEF6CF01A9
:1035E0000895462F4770405D4193B3E00FD0C9F76F
:1035F000F6CF462F4F70405D4A3318F0495D31FDDC
:103600004052419302D0A9F7EACFB4E0A69597952E
:10361000879577956795BA95C9F700976105710504
:1036200008959B01AC010A2E06945795479537954E
:103630002795BA95C9F7620F731F841F951FA01DA8
:063640000895F894FFCF8D
:1036460025640054656D70726174757265203A2048
:10365600002043004C69676874203A20002025004A
:103666006469676974616C203A20000000000000FC
:10367600000000000102020303030304040404041F
:1036860004040405050505050505050505050505E7
:1036960005050506060606060606060606060606C7
:1036A60006060606060606060606060606060606B4
:1036B6000606060707070707070707070707070797
:1036C6000707070707070707070707070707070784
:1036D6000707070707070707070707070707070774
:1036E6000707070707070707070707070707070764
:1036F6000707070808080808080808080808080847
:103706000808080808080808080808080808080833
:103716000808080808080808080808080808080823
:103726000808080808080808080808080808080813
:103736000808080808080808080808080808080803
:1037460008080808080808080808080808080808F3
:1037560008080808080808080808080808080808E3
:1037660008080808080808080808080808080808D3
:043776000808080037
:00000001FF
